5555OUT112127056001000023                                                                                                                                                          
4444OUT11212705600400000001355180000220000000135518000001000170074791708                                                                                                           
00007056004000000001234Premachandra        23000000000000001424800SLR7056004001234567890XYZ Company PVT LTD EMP NO         SALARY MAY '12 120730002709      CU1449                 
00007056004008040006260Ihillagolla         23000000000000000486500SLR7056004001234567890XYZ Company PVT LTD EMP NO         SALARY MAY '12 120730003513      CU1449                 
00007056004008040006276Wijayawantha        23000000000000000234636SLR7056004001234567890XYZ Company PVT LTD EMP NO         SALARY MAY '12 120730004002      CU1449                 
00007056004008040104401Jansz               23000000000000001227800SLR7056004001234567890XYZ Company PVT LTD EMP NO         SALARY MAY '12 120730004452      CU1449                 
00007056004008040000587Bandara             23000000000000000370266SLR7056004001234567890XYZ Company PVT LTD EMP NO         SALARY MAY '12 120730004113      CU1449                 
00007056004008040006280Wickramasinghe      23000000000000000406610SLR7056004001234567890XYZ Company PVT LTD EMP NO         SALARY MAY '12 120730003255      CU1449                 
00007056004008040006282Lalitharatne        23000000000000000530040SLR7056004001234567890XYZ Company PVT LTD EMP NO         SALARY MAY '12 120730002670      CU1449                 
00007056004008040006285Tissanayake         23000000000000000391464SLR7056004001234567890XYZ Company PVT LTD EMP NO         SALARY MAY '12 120730003858      CU1449                 
00007056004008040006288Bambaragama         23000000000000000634000SLR7056004001234567890XYZ Company PVT LTD EMP NO         SALARY MAY '12 120730004350      CU1449                 
00007056004008040006291Salgado             23000000000000000356500SLR7056004001234567890XYZ Company PVT LTD EMP NO         SALARY MAY '12 120730003000      CU1449                 
00007056004008040006292Dharmadasa          23000000000000000559250SLR7056004001234567890XYZ Company PVT LTD EMP NO         SALARY MAY '12 120730003003      CU1449                 
00007056004008040006293Embilmegama         23000000000000000489564SLR7056004001234567890XYZ Company PVT LTD EMP NO         SALARY MAY '12 120730003105      CU1449                 
00007056004008040006295Premaratne          23000000000000001549000SLR7056004001234567890XYZ Company PVT LTD EMP NO         SALARY MAY '12 120730003447      CU1449                 
00007056004008040006297Jagath Kumara       23000000000000000319500SLR7056004001234567890XYZ Company PVT LTD EMP NO         SALARY MAY '12 120730003579      CU1449                 
00007056004008040006298Wijesooriya         23000000000000000751400SLR7056004001234567890XYZ Company PVT LTD EMP NO         SALARY MAY '12 120730004119      CU1449                 
00007056004008040002866Hapuarachchi        23000000000000001057550SLR7056004001234567890XYZ Company PVT LTD EMP NO         SALARY MAY '12 120730004056      CU1449                 
00007056004008040006299Dunuwila            23000000000000000863264SLR7056004001234567890XYZ Company PVT LTD EMP NO         SALARY MAY '12 120730003378      CU1449                 
00007056004008040006309Ranasinghe          23000000000000000495728SLR7056004001234567890XYZ Company PVT LTD EMP NO         SALARY MAY '12 120730004221      CU1449                 
00007056004008040006271Haneef              23000000000000000351964SLR7056004001234567890XYZ Company PVT LTD EMP NO         SALARY MAY '12 120730003330      CU1449                 
00007056004008040006315Dissanayake         23000000000000000241964SLR7056004001234567890XYZ Company PVT LTD EMP NO         SALARY MAY '12 120730003555      CU1449                 
00007056004008040007049Liyanage            23000000000000000455000SLR7056004001234567890XYZ Company PVT LTD EMP NO         SALARY MAY '12 120730003549      CU1449                 
00007056004008040007050Pathirana           23000000000000000355000SLR7056004001234567890XYZ Company PVT LTD EMP NO         SALARY MAY '12 120730003306      CU1449                 
00007056004001234567890XYZ Company PVT LTD 23001000000000013551800SLR7056004001234567890XYZ Company PVT LTD EMP NO         SALARY MAY '12 120730003372      CU1449                 
