00007056020007866765678O C C AMARABANDU    23000000000000002814000SLR7056020007876778719KDAWEERASINGHE      EMP NO         SALJUL2012     120731      @
00007056020008987878861M T NIHAL THUSHARA  23000000000000005735000SLR7056020007876778719KDAWEERASINGHE      EMP NO         SALJUL2012     120731      @
00007056020007876112349W G TIKIRIBANDA     23000000000000004677500SLR7056020007876778719KDAWEERASINGHE      EMP NO         SALJUL2012     120731      @
00007056020001266565608G M R S KUMARA      23000000000000005588500SLR7056020007876778719KDAWEERASINGHE      EMP NO         SALJUL2012     120731      @
00007056020000765221070G A B ROHITHA       23000000000000005295500SLR7056020007876778719KDAWEERASINGHE      EMP NO         SALJUL2012     120731      @
00007056020007876778719KDAWEERASINGHE      23001000000000024110500SLR7056020007876778719KDAWEERASINGHE      EMP NO         SALJUL2012     120731      @
